:040000000C94340028
:100004000C9461000C9400000C9400000C9400000B
:100014000C9400000C9400000C9400000C9400005C
:100024000C9400000C9400000C9400000C9400004C
:100034000C9400000C9400000C9400000C9400003C
:100044000C9400000C9400000C9400000C9400002C
:1000540001002D4E414E00494E4600000100600251
:1000640054000000F894EE27ECBBF1E0FBBFEBBFBB
:10007400E5BF8DE0A2E0BB27ED938A95E9F780E028
:1000840098E0A0E6ED930197E9F7E0E6F0E08591CA
:100094009591009761F0A591B59105901590BF01D8
:1000A400F00105900D920197E1F7FB01F0CFEFE528
:1000B400EDBFE8E0EEBFC0E6D2E00C946800EA933E
:1000C400EFEFE2BFECECECBFE9911895E0E0EABB9E
:1000D400EBBBE8E0E7BBE0E0E8BBE4BBE5BBE1BBCE
:1000E400E2BBE9E6E3BFE0E0EFBDEEBDEDBDECBD94
:1000F400E7BDE6BDEBBDEABDE9BDE8BDE2BDE5BDDA
:10010400E4BDE3BDE9BFEBB7E064EBBFE3E0E5BF0B
:10011400E0E0E4BFE0E4EABFE0E0EAB9E0E8E8B93F
:10012400E0E0E0BFE6B9EDB9E6BF7894FFCFFFCFDA
:00000001FF
